{
  "contractName": "RecycleVe",
  "abi": [
    {
      "inputs": [],
      "stateMutability": "nonpayable",
      "type": "constructor"
    },
    {
      "anonymous": false,
      "inputs": [
        {
          "indexed": false,
          "internalType": "uint256",
          "name": "id",
          "type": "uint256"
        },
        {
          "indexed": false,
          "internalType": "string",
          "name": "condition",
          "type": "string"
        },
        {
          "indexed": false,
          "internalType": "string",
          "name": "receptionHub",
          "type": "string"
        },
        {
          "indexed": false,
          "internalType": "uint256",
          "name": "weight",
          "type": "uint256"
        },
        {
          "indexed": false,
          "internalType": "address",
          "name": "owner",
          "type": "address"
        },
        {
          "indexed": false,
          "internalType": "bool",
          "name": "status",
          "type": "bool"
        },
        {
          "components": [
            {
              "internalType": "uint256",
              "name": "id",
              "type": "uint256"
            },
            {
              "internalType": "string",
              "name": "phoneNumber",
              "type": "string"
            },
            {
              "internalType": "string",
              "name": "email",
              "type": "string"
            }
          ],
          "indexed": false,
          "internalType": "struct RecycleVe.Collector",
          "name": "collector",
          "type": "tuple"
        }
      ],
      "name": "wasteUnitCreated",
      "type": "event"
    },
    {
      "inputs": [],
      "name": "name",
      "outputs": [
        {
          "internalType": "string",
          "name": "",
          "type": "string"
        }
      ],
      "stateMutability": "view",
      "type": "function"
    },
    {
      "inputs": [
        {
          "internalType": "uint256",
          "name": "",
          "type": "uint256"
        }
      ],
      "name": "units",
      "outputs": [
        {
          "internalType": "uint256",
          "name": "id",
          "type": "uint256"
        },
        {
          "internalType": "string",
          "name": "condition",
          "type": "string"
        },
        {
          "internalType": "string",
          "name": "receptionHub",
          "type": "string"
        },
        {
          "internalType": "uint256",
          "name": "weight",
          "type": "uint256"
        },
        {
          "internalType": "address",
          "name": "owner",
          "type": "address"
        },
        {
          "internalType": "bool",
          "name": "status",
          "type": "bool"
        },
        {
          "components": [
            {
              "internalType": "uint256",
              "name": "id",
              "type": "uint256"
            },
            {
              "internalType": "string",
              "name": "phoneNumber",
              "type": "string"
            },
            {
              "internalType": "string",
              "name": "email",
              "type": "string"
            }
          ],
          "internalType": "struct RecycleVe.Collector",
          "name": "collector",
          "type": "tuple"
        }
      ],
      "stateMutability": "view",
      "type": "function"
    },
    {
      "inputs": [],
      "name": "wasteUnitsCount",
      "outputs": [
        {
          "internalType": "uint256",
          "name": "",
          "type": "uint256"
        }
      ],
      "stateMutability": "view",
      "type": "function"
    },
    {
      "inputs": [
        {
          "internalType": "string",
          "name": "_condition",
          "type": "string"
        },
        {
          "internalType": "string",
          "name": "_receptionHub",
          "type": "string"
        },
        {
          "internalType": "uint256",
          "name": "_weight",
          "type": "uint256"
        }
      ],
      "name": "createWasteUnit",
      "outputs": [],
      "stateMutability": "nonpayable",
      "type": "function"
    }
  ],
  "bytecode": "0x608060405260006001553480156200001657600080fd5b506040518060400160405280600981526020017f52656379636c655665000000000000000000000000000000000000000000000081525060009080519060200190620000649291906200006b565b506200017f565b82805462000079906200014a565b90600052602060002090601f0160209004810192826200009d5760008555620000e9565b82601f10620000b857805160ff1916838001178555620000e9565b82800160010185558215620000e9579182015b82811115620000e8578251825591602001919060010190620000cb565b5b509050620000f89190620000fc565b5090565b5b8082111562000117576000816000905550600101620000fd565b5090565b7f4e487b7100000000000000000000000000000000000000000000000000000000600052602260045260246000fd5b600060028204905060018216806200016357607f821691505b6020821081036200017957620001786200011b565b5b50919050565b610ccd806200018f6000396000f3fe608060405234801561001057600080fd5b506004361061004c5760003560e01c806306fdde031461005157806340109e5b1461006f578063b958e4b61461008b578063e5fba6cc146100a9575b600080fd5b6100596100df565b60405161006691906107ad565b60405180910390f35b6100896004803603810190610084919061094e565b61016d565b005b6100936103b4565b6040516100a091906109e8565b60405180910390f35b6100c360048036038101906100be9190610a03565b6103ba565b6040516100d69796959493929190610b3c565b60405180910390f35b600080546100ec90610bef565b80601f016020809104026020016040519081016040528092919081815260200182805461011890610bef565b80156101655780601f1061013a57610100808354040283529160200191610165565b820191906000526020600020905b81548152906001019060200180831161014857829003601f168201915b505050505081565b60006040518060e0016040528060015481526020018581526020018481526020018381526020013373ffffffffffffffffffffffffffffffffffffffff168152602001600015158152602001604051806060016040528060008152602001604051806020016040528060008152508152602001604051806020016040528060008152508152508152509050806002600083600001518152602001908152602001600020600082015181600001556020820151816001019080519060200190610236929190610671565b506040820151816002019080519060200190610253929190610671565b506060820151816003015560808201518160040160006101000a81548173ffffffffffffffffffffffffffffffffffffffff021916908373ffffffffffffffffffffffffffffffffffffffff16021790555060a08201518160040160146101000a81548160ff02191690831515021790555060c0820151816005016000820151816000015560208201518160010190805190602001906102f4929190610671565b506040820151816002019080519060200190610311929190610671565b5050509050507fd5174b7accefc3654e2f87b2f8213c6cad2711262211f6a2d30b55c4fb4424716001548585853360006040518060600160405280600081526020016040518060200160405280600081525081526020016040518060200160405280600081525081525060405161038e9796959493929190610b3c565b60405180910390a1600160008154809291906103a990610c4f565b919050555050505050565b60015481565b60026020528060005260406000206000915090508060000154908060010180546103e390610bef565b80601f016020809104026020016040519081016040528092919081815260200182805461040f90610bef565b801561045c5780601f106104315761010080835404028352916020019161045c565b820191906000526020600020905b81548152906001019060200180831161043f57829003601f168201915b50505050509080600201805461047190610bef565b80601f016020809104026020016040519081016040528092919081815260200182805461049d90610bef565b80156104ea5780601f106104bf576101008083540402835291602001916104ea565b820191906000526020600020905b8154815290600101906020018083116104cd57829003601f168201915b5050505050908060030154908060040160009054906101000a900473ffffffffffffffffffffffffffffffffffffffff16908060040160149054906101000a900460ff1690806005016040518060600160405290816000820154815260200160018201805461055890610bef565b80601f016020809104026020016040519081016040528092919081815260200182805461058490610bef565b80156105d15780601f106105a6576101008083540402835291602001916105d1565b820191906000526020600020905b8154815290600101906020018083116105b457829003601f168201915b505050505081526020016002820180546105ea90610bef565b80601f016020809104026020016040519081016040528092919081815260200182805461061690610bef565b80156106635780601f1061063857610100808354040283529160200191610663565b820191906000526020600020905b81548152906001019060200180831161064657829003601f168201915b505050505081525050905087565b82805461067d90610bef565b90600052602060002090601f01602090048101928261069f57600085556106e6565b82601f106106b857805160ff19168380011785556106e6565b828001600101855582156106e6579182015b828111156106e55782518255916020019190600101906106ca565b5b5090506106f391906106f7565b5090565b5b808211156107105760008160009055506001016106f8565b5090565b600081519050919050565b600082825260208201905092915050565b60005b8381101561074e578082015181840152602081019050610733565b8381111561075d576000848401525b50505050565b6000601f19601f8301169050919050565b600061077f82610714565b610789818561071f565b9350610799818560208601610730565b6107a281610763565b840191505092915050565b600060208201905081810360008301526107c78184610774565b905092915050565b6000604051905090565b600080fd5b600080fd5b600080fd5b600080fd5b7f4e487b7100000000000000000000000000000000000000000000000000000000600052604160045260246000fd5b61082582610763565b810181811067ffffffffffffffff82111715610844576108436107ed565b5b80604052505050565b60006108576107cf565b9050610863828261081c565b919050565b600067ffffffffffffffff821115610883576108826107ed565b5b61088c82610763565b9050602081019050919050565b82818337600083830152505050565b60006108bb6108b684610868565b61084d565b9050828152602081018484840111156108d7576108d66107e8565b5b6108e2848285610899565b509392505050565b600082601f8301126108ff576108fe6107e3565b5b813561090f8482602086016108a8565b91505092915050565b6000819050919050565b61092b81610918565b811461093657600080fd5b50565b60008135905061094881610922565b92915050565b600080600060608486031215610967576109666107d9565b5b600084013567ffffffffffffffff811115610985576109846107de565b5b610991868287016108ea565b935050602084013567ffffffffffffffff8111156109b2576109b16107de565b5b6109be868287016108ea565b92505060406109cf86828701610939565b9150509250925092565b6109e281610918565b82525050565b60006020820190506109fd60008301846109d9565b92915050565b600060208284031215610a1957610a186107d9565b5b6000610a2784828501610939565b91505092915050565b600073ffffffffffffffffffffffffffffffffffffffff82169050919050565b6000610a5b82610a30565b9050919050565b610a6b81610a50565b82525050565b60008115159050919050565b610a8681610a71565b82525050565b610a9581610918565b82525050565b600082825260208201905092915050565b6000610ab782610714565b610ac18185610a9b565b9350610ad1818560208601610730565b610ada81610763565b840191505092915050565b6000606083016000830151610afd6000860182610a8c565b5060208301518482036020860152610b158282610aac565b91505060408301518482036040860152610b2f8282610aac565b9150508091505092915050565b600060e082019050610b51600083018a6109d9565b8181036020830152610b638189610774565b90508181036040830152610b778188610774565b9050610b8660608301876109d9565b610b936080830186610a62565b610ba060a0830185610a7d565b81810360c0830152610bb28184610ae5565b905098975050505050505050565b7f4e487b7100000000000000000000000000000000000000000000000000000000600052602260045260246000fd5b60006002820490506001821680610c0757607f821691505b602082108103610c1a57610c19610bc0565b5b50919050565b7f4e487b7100000000000000000000000000000000000000000000000000000000600052601160045260246000fd5b6000610c5a82610918565b91507fffffffffffffffffffffffffffffffffffffffffffffffffffffffffffffffff8203610c8c57610c8b610c20565b5b60018201905091905056fea2646970667358221220ac205451db8ad083c76fa143ff0d1e959109bbb3d8d36e4b1d147470ad354c8e64736f6c634300080d0033",
  "immutableReferences": {},
  "source": "pragma solidity ^0.8.0;\r\n\r\ncontract RecycleVe{\r\n\r\n    string public name;\r\n    uint public wasteUnitsCount = 0;\r\n    mapping(uint => WasteUnit)  public units;\r\n   // mapping(uint => Collector)  public collectors;\r\n\r\n    struct Collector{\r\n        uint id;\r\n        string phoneNumber;\r\n        string email;\r\n    }\r\n\r\n       struct WasteUnit{\r\n        uint id;\r\n        string condition;\r\n        string receptionHub;\r\n        uint weight;\r\n        address owner;\r\n        bool status;\r\n        Collector collector;\r\n    }\r\n\r\n     constructor() public{\r\n        name = \"RecycleVe\";\r\n    }\r\n\r\n    event wasteUnitCreated(\r\n         uint id,\r\n        string condition,\r\n        string receptionHub,\r\n        uint weight,\r\n        address owner,\r\n        bool status,\r\n        Collector collector\r\n    );\r\n\r\n   \r\n\r\n    function createWasteUnit(\r\n        string memory _condition,\r\n        string memory _receptionHub,\r\n        uint _weight\r\n    ) public {\r\n           WasteUnit memory wasteUnit = WasteUnit(\r\n            wasteUnitsCount,\r\n            _condition,\r\n            _receptionHub,\r\n            _weight,\r\n            msg.sender,\r\n            false,\r\n            Collector(0, \"\", \"\")\r\n        );\r\n        units[wasteUnit.id] = wasteUnit;\r\n        emit wasteUnitCreated(\r\n            wasteUnitsCount,\r\n            _condition,\r\n            _receptionHub,\r\n            _weight,\r\n            msg.sender,\r\n            false,\r\n            Collector(0, \"\", \"\"));\r\n        wasteUnitsCount++;\r\n    \r\n    }\r\n\r\n\r\n\r\n}",
  "sourcePath": "C:\\Users\\josel\\Documents\\projects\\pasantias\\starter_kit\\src\\contracts\\RecycleVe.sol",
  "compiler": {
    "name": "solc",
    "version": "0.8.13+commit.abaa5c0e.Emscripten.clang"
  },
  "schemaVersion": "3.4.6",
  "updatedAt": "2022-04-26T15:22:27.598Z",
  "devdoc": {
    "kind": "dev",
    "methods": {},
    "version": 1
  },
  "userdoc": {
    "kind": "user",
    "methods": {},
    "version": 1
  }
}