{
  "contractName": "RecycleVe",
  "abi": [
    {
      "inputs": [],
      "stateMutability": "nonpayable",
      "type": "constructor"
    },
    {
      "anonymous": false,
      "inputs": [
        {
          "indexed": false,
          "internalType": "uint256",
          "name": "id",
          "type": "uint256"
        },
        {
          "indexed": false,
          "internalType": "string",
          "name": "condition",
          "type": "string"
        },
        {
          "indexed": false,
          "internalType": "string",
          "name": "receptionHub",
          "type": "string"
        },
        {
          "indexed": false,
          "internalType": "uint256",
          "name": "weight",
          "type": "uint256"
        },
        {
          "indexed": false,
          "internalType": "uint256",
          "name": "price",
          "type": "uint256"
        },
        {
          "indexed": false,
          "internalType": "bool",
          "name": "purchased",
          "type": "bool"
        },
        {
          "indexed": false,
          "internalType": "address",
          "name": "owner",
          "type": "address"
        },
        {
          "indexed": false,
          "internalType": "string",
          "name": "collectorEmail",
          "type": "string"
        },
        {
          "indexed": false,
          "internalType": "bool",
          "name": "rewardReclaimed",
          "type": "bool"
        }
      ],
      "name": "WasteUnitPurchased",
      "type": "event"
    },
    {
      "anonymous": false,
      "inputs": [
        {
          "indexed": false,
          "internalType": "uint256",
          "name": "id",
          "type": "uint256"
        },
        {
          "indexed": false,
          "internalType": "string",
          "name": "condition",
          "type": "string"
        },
        {
          "indexed": false,
          "internalType": "string",
          "name": "receptionHub",
          "type": "string"
        },
        {
          "indexed": false,
          "internalType": "uint256",
          "name": "weight",
          "type": "uint256"
        },
        {
          "indexed": false,
          "internalType": "uint256",
          "name": "price",
          "type": "uint256"
        },
        {
          "indexed": false,
          "internalType": "bool",
          "name": "purchased",
          "type": "bool"
        },
        {
          "indexed": false,
          "internalType": "address",
          "name": "owner",
          "type": "address"
        },
        {
          "indexed": false,
          "internalType": "string",
          "name": "collectorEmail",
          "type": "string"
        },
        {
          "indexed": false,
          "internalType": "bool",
          "name": "rewardReclaimed",
          "type": "bool"
        }
      ],
      "name": "wasteUnitCreated",
      "type": "event"
    },
    {
      "inputs": [],
      "name": "name",
      "outputs": [
        {
          "internalType": "string",
          "name": "",
          "type": "string"
        }
      ],
      "stateMutability": "view",
      "type": "function"
    },
    {
      "inputs": [
        {
          "internalType": "uint256",
          "name": "",
          "type": "uint256"
        }
      ],
      "name": "units",
      "outputs": [
        {
          "internalType": "uint256",
          "name": "id",
          "type": "uint256"
        },
        {
          "internalType": "string",
          "name": "condition",
          "type": "string"
        },
        {
          "internalType": "string",
          "name": "receptionHub",
          "type": "string"
        },
        {
          "internalType": "uint256",
          "name": "weight",
          "type": "uint256"
        },
        {
          "internalType": "uint256",
          "name": "price",
          "type": "uint256"
        },
        {
          "internalType": "bool",
          "name": "purchased",
          "type": "bool"
        },
        {
          "internalType": "address",
          "name": "owner",
          "type": "address"
        },
        {
          "internalType": "string",
          "name": "collectorEmail",
          "type": "string"
        },
        {
          "internalType": "bool",
          "name": "rewardReclaimed",
          "type": "bool"
        }
      ],
      "stateMutability": "view",
      "type": "function"
    },
    {
      "inputs": [],
      "name": "wasteUnitsCount",
      "outputs": [
        {
          "internalType": "uint256",
          "name": "",
          "type": "uint256"
        }
      ],
      "stateMutability": "view",
      "type": "function"
    },
    {
      "inputs": [
        {
          "internalType": "string",
          "name": "_condition",
          "type": "string"
        },
        {
          "internalType": "string",
          "name": "_receptionHub",
          "type": "string"
        },
        {
          "internalType": "uint256",
          "name": "_weight",
          "type": "uint256"
        },
        {
          "internalType": "string",
          "name": "_collectorEmail",
          "type": "string"
        }
      ],
      "name": "createWasteUnit",
      "outputs": [],
      "stateMutability": "nonpayable",
      "type": "function"
    },
    {
      "inputs": [
        {
          "internalType": "uint256",
          "name": "_id",
          "type": "uint256"
        }
      ],
      "name": "purchaseWasteUnit",
      "outputs": [],
      "stateMutability": "payable",
      "type": "function"
    }
  ],
  "bytecode": "0x608060405260006002553480156200001657600080fd5b506040518060400160405280600981526020017f52656379636c655665000000000000000000000000000000000000000000000081525060019080519060200190620000649291906200006b565b506200017f565b82805462000079906200014a565b90600052602060002090601f0160209004810192826200009d5760008555620000e9565b82601f10620000b857805160ff1916838001178555620000e9565b82800160010185558215620000e9579182015b82811115620000e8578251825591602001919060010190620000cb565b5b509050620000f89190620000fc565b5090565b5b8082111562000117576000816000905550600101620000fd565b5090565b7f4e487b7100000000000000000000000000000000000000000000000000000000600052602260045260246000fd5b600060028204905060018216806200016357607f821691505b6020821081036200017957620001786200011b565b5b50919050565b611572806200018f6000396000f3fe60806040526004361061004a5760003560e01c806302510e321461004f57806306fdde031461006b5780632488d9b214610096578063b958e4b6146100bf578063e5fba6cc146100ea575b600080fd5b61006960048036038101906100649190610d3b565b61012f565b005b34801561007757600080fd5b506100806106d4565b60405161008d9190610e01565b60405180910390f35b3480156100a257600080fd5b506100bd60048036038101906100b89190610f58565b610762565b005b3480156100cb57600080fd5b506100d4610a28565b6040516100e19190611022565b60405180910390f35b3480156100f657600080fd5b50610111600480360381019061010c9190610d3b565b610a2e565b60405161012699989796959493929190611099565b60405180910390f35b600080600083815260200190815260200160002060405180610120016040529081600082015481526020016001820180546101699061116a565b80601f01602080910402602001604051908101604052809291908181526020018280546101959061116a565b80156101e25780601f106101b7576101008083540402835291602001916101e2565b820191906000526020600020905b8154815290600101906020018083116101c557829003601f168201915b505050505081526020016002820180546101fb9061116a565b80601f01602080910402602001604051908101604052809291908181526020018280546102279061116a565b80156102745780601f1061024957610100808354040283529160200191610274565b820191906000526020600020905b81548152906001019060200180831161025757829003601f168201915b5050505050815260200160038201548152602001600482015481526020016005820160009054906101000a900460ff161515151581526020016005820160019054906101000a900473ffffffffffffffffffffffffffffffffffffffff1673ffffffffffffffffffffffffffffffffffffffff1673ffffffffffffffffffffffffffffffffffffffff1681526020016006820180546103129061116a565b80601f016020809104026020016040519081016040528092919081815260200182805461033e9061116a565b801561038b5780601f106103605761010080835404028352916020019161038b565b820191906000526020600020905b81548152906001019060200180831161036e57829003601f168201915b505050505081526020016007820160009054906101000a900460ff161515151581525050905060008160c001519050600082600001511180156103d45750600254826000015111155b610413576040517f08c379a000000000000000000000000000000000000000000000000000000000815260040161040a906111e7565b60405180910390fd5b816080015134101561045a576040517f08c379a000000000000000000000000000000000000000000000000000000000815260040161045190611279565b60405180910390fd5b3373ffffffffffffffffffffffffffffffffffffffff168173ffffffffffffffffffffffffffffffffffffffff16036104c8576040517f08c379a00000000000000000000000000000000000000000000000000000000081526004016104bf906112e5565b60405180910390fd5b338260c0019073ffffffffffffffffffffffffffffffffffffffff16908173ffffffffffffffffffffffffffffffffffffffff168152505060018260a00190151590811515815250508160008085815260200190815260200160002060008201518160000155602082015181600101908051906020019061054a929190610c4e565b506040820151816002019080519060200190610567929190610c4e565b50606082015181600301556080820151816004015560a08201518160050160006101000a81548160ff02191690831515021790555060c08201518160050160016101000a81548173ffffffffffffffffffffffffffffffffffffffff021916908373ffffffffffffffffffffffffffffffffffffffff16021790555060e08201518160060190805190602001906105ff929190610c4e565b506101008201518160070160006101000a81548160ff0219169083151502179055509050508073ffffffffffffffffffffffffffffffffffffffff166108fc349081150290604051600060405180830381858888f1935050505015801561066a573d6000803e3d6000fd5b507fb3cd985314a80501f52c63a06b49bd59e8b63f55c4431da2e30834ae424c7a018383602001518460400151856060015186606001518760a00151338960e001518a61010001516040516106c799989796959493929190611099565b60405180910390a1505050565b600180546106e19061116a565b80601f016020809104026020016040519081016040528092919081815260200182805461070d9061116a565b801561075a5780601f1061072f5761010080835404028352916020019161075a565b820191906000526020600020905b81548152906001019060200180831161073d57829003601f168201915b505050505081565b60008451116107a6576040517f08c379a000000000000000000000000000000000000000000000000000000000815260040161079d90611377565b60405180910390fd5b60008351116107ea576040517f08c379a00000000000000000000000000000000000000000000000000000000081526004016107e1906113e3565b60405180910390fd5b6000821161082d576040517f08c379a00000000000000000000000000000000000000000000000000000000081526004016108249061144f565b60405180910390fd5b6000604051806101200160405280600160025461084a919061149e565b81526020018681526020018581526020018481526020018481526020016000151581526020013373ffffffffffffffffffffffffffffffffffffffff16815260200183815260200160001515815250905080600080836000015181526020019081526020016000206000820151816000015560208201518160010190805190602001906108d8929190610c4e565b5060408201518160020190805190602001906108f5929190610c4e565b50606082015181600301556080820151816004015560a08201518160050160006101000a81548160ff02191690831515021790555060c08201518160050160016101000a81548173ffffffffffffffffffffffffffffffffffffffff021916908373ffffffffffffffffffffffffffffffffffffffff16021790555060e082015181600601908051906020019061098d929190610c4e565b506101008201518160070160006101000a81548160ff0219169083151502179055509050507f52e5569366f5198331c08d566558a85587228b2e851352630ca020d4f0477efb60016002546109e2919061149e565b86868687600033896000604051610a0199989796959493929190611099565b60405180910390a160026000815480929190610a1c906114f4565b91905055505050505050565b60025481565b6000602052806000526040600020600091509050806000015490806001018054610a579061116a565b80601f0160208091040260200160405190810160405280929190818152602001828054610a839061116a565b8015610ad05780601f10610aa557610100808354040283529160200191610ad0565b820191906000526020600020905b815481529060010190602001808311610ab357829003601f168201915b505050505090806002018054610ae59061116a565b80601f0160208091040260200160405190810160405280929190818152602001828054610b119061116a565b8015610b5e5780601f10610b3357610100808354040283529160200191610b5e565b820191906000526020600020905b815481529060010190602001808311610b4157829003601f168201915b5050505050908060030154908060040154908060050160009054906101000a900460ff16908060050160019054906101000a900473ffffffffffffffffffffffffffffffffffffffff1690806006018054610bb89061116a565b80601f0160208091040260200160405190810160405280929190818152602001828054610be49061116a565b8015610c315780601f10610c0657610100808354040283529160200191610c31565b820191906000526020600020905b815481529060010190602001808311610c1457829003601f168201915b5050505050908060070160009054906101000a900460ff16905089565b828054610c5a9061116a565b90600052602060002090601f016020900481019282610c7c5760008555610cc3565b82601f10610c9557805160ff1916838001178555610cc3565b82800160010185558215610cc3579182015b82811115610cc2578251825591602001919060010190610ca7565b5b509050610cd09190610cd4565b5090565b5b80821115610ced576000816000905550600101610cd5565b5090565b6000604051905090565b600080fd5b600080fd5b6000819050919050565b610d1881610d05565b8114610d2357600080fd5b50565b600081359050610d3581610d0f565b92915050565b600060208284031215610d5157610d50610cfb565b5b6000610d5f84828501610d26565b91505092915050565b600081519050919050565b600082825260208201905092915050565b60005b83811015610da2578082015181840152602081019050610d87565b83811115610db1576000848401525b50505050565b6000601f19601f8301169050919050565b6000610dd382610d68565b610ddd8185610d73565b9350610ded818560208601610d84565b610df681610db7565b840191505092915050565b60006020820190508181036000830152610e1b8184610dc8565b905092915050565b600080fd5b600080fd5b7f4e487b7100000000000000000000000000000000000000000000000000000000600052604160045260246000fd5b610e6582610db7565b810181811067ffffffffffffffff82111715610e8457610e83610e2d565b5b80604052505050565b6000610e97610cf1565b9050610ea38282610e5c565b919050565b600067ffffffffffffffff821115610ec357610ec2610e2d565b5b610ecc82610db7565b9050602081019050919050565b82818337600083830152505050565b6000610efb610ef684610ea8565b610e8d565b905082815260208101848484011115610f1757610f16610e28565b5b610f22848285610ed9565b509392505050565b600082601f830112610f3f57610f3e610e23565b5b8135610f4f848260208601610ee8565b91505092915050565b60008060008060808587031215610f7257610f71610cfb565b5b600085013567ffffffffffffffff811115610f9057610f8f610d00565b5b610f9c87828801610f2a565b945050602085013567ffffffffffffffff811115610fbd57610fbc610d00565b5b610fc987828801610f2a565b9350506040610fda87828801610d26565b925050606085013567ffffffffffffffff811115610ffb57610ffa610d00565b5b61100787828801610f2a565b91505092959194509250565b61101c81610d05565b82525050565b60006020820190506110376000830184611013565b92915050565b60008115159050919050565b6110528161103d565b82525050565b600073ffffffffffffffffffffffffffffffffffffffff82169050919050565b600061108382611058565b9050919050565b61109381611078565b82525050565b6000610120820190506110af600083018c611013565b81810360208301526110c1818b610dc8565b905081810360408301526110d5818a610dc8565b90506110e46060830189611013565b6110f16080830188611013565b6110fe60a0830187611049565b61110b60c083018661108a565b81810360e083015261111d8185610dc8565b905061112d610100830184611049565b9a9950505050505050505050565b7f4e487b7100000000000000000000000000000000000000000000000000000000600052602260045260246000fd5b6000600282049050600182168061118257607f821691505b6020821081036111955761119461113b565b5b50919050565b7f576173746520556e697420696420696e76616c69640000000000000000000000600082015250565b60006111d1601583610d73565b91506111dc8261119b565b602082019050919050565b60006020820190508181036000830152611200816111c4565b9050919050565b7f7472616e73616374696f6e20616d6f756e7420736d616c6c6572207468616e2060008201527f7761737465556e69745072696365000000000000000000000000000000000000602082015250565b6000611263602e83610d73565b915061126e82611207565b604082019050919050565b6000602082019050818103600083015261129281611256565b9050919050565b7f53656c6c65722063616e27742062757920697473206f776e2070726f64756374600082015250565b60006112cf602083610d73565b91506112da82611299565b602082019050919050565b600060208201905081810360008301526112fe816112c2565b9050919050565b7f726571756972657320612076616c6964205761737465556e6974436f6e64697460008201527f696f6e0000000000000000000000000000000000000000000000000000000000602082015250565b6000611361602383610d73565b915061136c82611305565b604082019050919050565b6000602082019050818103600083015261139081611354565b9050919050565b7f726571756972657320612076616c696420526563657074696f6e487562000000600082015250565b60006113cd601d83610d73565b91506113d882611397565b602082019050919050565b600060208201905081810360008301526113fc816113c0565b9050919050565b7f726571756972657320612076616c696420776569676874000000000000000000600082015250565b6000611439601783610d73565b915061144482611403565b602082019050919050565b600060208201905081810360008301526114688161142c565b9050919050565b7f4e487b7100000000000000000000000000000000000000000000000000000000600052601160045260246000fd5b60006114a982610d05565b91506114b483610d05565b9250827fffffffffffffffffffffffffffffffffffffffffffffffffffffffffffffffff038211156114e9576114e861146f565b5b828201905092915050565b60006114ff82610d05565b91507fffffffffffffffffffffffffffffffffffffffffffffffffffffffffffffffff82036115315761153061146f565b5b60018201905091905056fea264697066735822122081bea050f99a7274c1c4579e75013707f4e8ae8b77a335fd94d8a8ba1d97004964736f6c634300080e0033",
  "immutableReferences": {},
  "source": "pragma solidity ^0.8.0;\r\n\r\ncontract RecycleVe{\r\n\r\n    mapping(uint => WasteUnit)  public units;\r\n    string public name;\r\n    uint public wasteUnitsCount = 0;\r\n  \r\n\r\n       struct WasteUnit{\r\n        uint id;\r\n        string condition;\r\n        string receptionHub;\r\n        uint weight;\r\n        uint price;\r\n        bool purchased;\r\n        address  owner;\r\n        string collectorEmail;\r\n        bool rewardReclaimed;\r\n      }\r\n\r\n     constructor() public{\r\n        name = \"RecycleVe\";\r\n    }\r\n\r\n    event wasteUnitCreated(\r\n         uint id,\r\n        string condition,\r\n        string receptionHub,\r\n        uint weight,\r\n        uint price,\r\n        bool purchased,\r\n        address  owner,\r\n        string collectorEmail,\r\n        bool rewardReclaimed\r\n    );\r\n\r\n   \r\n\r\n    function createWasteUnit(\r\n        string memory _condition,\r\n        string memory _receptionHub,\r\n        uint _weight,\r\n        string memory _collectorEmail\r\n    ) public {\r\n\r\n        //requires a valid condition\r\n        require(bytes(_condition).length>0 , 'requires a valid WasteUnitCondition');\r\n        //requires a valid receptionHub\r\n        require(bytes(_receptionHub).length>0, 'requires a valid ReceptionHub');\r\n        //requires a valid weight\r\n        require(_weight>0 , 'requires a valid weight');\r\n\r\n           WasteUnit memory wasteUnit = WasteUnit(\r\n            wasteUnitsCount + 1,\r\n            _condition,\r\n            _receptionHub,\r\n            _weight,\r\n            _weight,\r\n            false,\r\n            msg.sender,\r\n            _collectorEmail,\r\n            false\r\n        );\r\n        units[wasteUnit.id] = wasteUnit;\r\n        emit wasteUnitCreated(\r\n            wasteUnitsCount + 1,\r\n            _condition,\r\n            _receptionHub,\r\n            _weight,\r\n            _weight,\r\n            false,\r\n            msg.sender,\r\n            _collectorEmail,\r\n            false\r\n            );\r\n        wasteUnitsCount++;\r\n    \r\n    }\r\n\r\n  event WasteUnitPurchased(\r\n         uint id,\r\n        string condition,\r\n        string receptionHub,\r\n        uint weight,\r\n        uint price,\r\n        bool purchased,\r\n        address  owner,\r\n        string collectorEmail,\r\n        bool rewardReclaimed\r\n    );\r\n\r\n    function purchaseWasteUnit(uint _id) public payable{\r\n        //fetch the unit\r\n        WasteUnit memory _wasteUnit = units[_id];\r\n        //fetch de owner\r\n        address  _seller = _wasteUnit.owner;\r\n        //make sure the product is valid\r\n        require(_wasteUnit.id>0 && _wasteUnit.id <= wasteUnitsCount, \"Waste Unit id invalid\");\r\n        //require that there is enough Ether in the transaction\r\n        // require(msg.value >= _wasteUnit.price)\r\n         require(msg.value >= _wasteUnit.price, \"transaction amount smaller than wasteUnitPrice\");\r\n         //requires that the product has not been purchased yet\r\n         //require(!_wasteUnit.purchased, \"This product has been pruchased already\");\r\n         //require the buyer is not the seller\r\n         require(_seller != msg.sender, \"Seller can't buy its own product\");\r\n\r\n        //transfer ownership to buyer\r\n        _wasteUnit.owner = msg.sender;\r\n        //mark as purchased\r\n        _wasteUnit.purchased = true;\r\n        //update product\r\n        units[_id] = _wasteUnit;\r\n        //pay the seller\r\n        payable(_seller).transfer(msg.value);\r\n        //trigger an event\r\n           emit WasteUnitPurchased(\r\n            _id ,\r\n            _wasteUnit.condition,\r\n             _wasteUnit.receptionHub,\r\n            _wasteUnit.weight,\r\n            _wasteUnit.weight,\r\n            _wasteUnit.purchased,\r\n            msg.sender,\r\n            _wasteUnit.collectorEmail,\r\n            _wasteUnit.rewardReclaimed\r\n            );\r\n        \r\n\r\n    }\r\n}",
  "sourcePath": "C:\\Users\\josel\\Documents\\projects\\pasantias\\starter_kit\\src\\contracts\\RecycleVe.sol",
  "compiler": {
    "name": "solc",
    "version": "0.8.14+commit.80d49f37.Emscripten.clang"
  },
  "schemaVersion": "3.4.6",
  "updatedAt": "2022-05-21T19:26:36.094Z",
  "devdoc": {
    "kind": "dev",
    "methods": {},
    "version": 1
  },
  "userdoc": {
    "kind": "user",
    "methods": {},
    "version": 1
  }
}